:100000000C94F40D0C94250E0C94250E0C94250ED6
:100010000C94250E0C94250E0C94250E0C94250E94
:100020000C94250E0C94250E0C94250E0C94250E84
:100030000C94250E0C94299D0C94250E0C94250EE1
:100040000C94250E0C94B7670C94250E0C94250E79
:100050000C94250E0C94250E0C941C780C941E9771
:100060000C94250E0C9467140C94250E0C94250EFC
:100070000C94250E0C94250E0C94250E0C94250E34
:100080000C94250E0C94250E0C94250E0C94250E24
:100090000C94250E0C94250E0C94250E0C94250E14
:1000A0000C94250E0C94250E0C94250E0C94250E04
:1000B0000C94250E0C94250E0C94250E0C94250EF4
:1000C0000C94250E0C94250E0C94250E0C94250EE4
:1000D0000C94250E0C94250E0C94250E0C94250ED4
:1000E0000C94250E2B222B22362236223622412238
:1000F0004122412256224C224C224C2265787478AF
:1001000090789F78B978C878E278E678EE784D985C
:100110005298579861986B98E49875987D9885984F
:100120008F989998A398B298BC98E498C698D0985C
:10013000DA9806990999F898FC98029940990D99CE
:10014000119917991B991F99259929992D994099CA
:10015000339937993B99084AD73B3BCE016E84BC13
:10016000BFFDC12F3D6C74319ABD56833DDA3D0011
:10017000C77F11BED9E4BB4C3E916BAAAABE00005A
:1001800000803F05A84CCDB2D44EB93836A9020C38
:1001900050B9918688083CA6AAAA2ABE0000008011
:1001A0003F0048617264636F646564204465666102
:1001B000756C742053657474696E6773204C6F613D
:1001C0006465640053746F72656420736574746948
:1001D0006E67732072657472696576656400204489
:1001E000002049002020204D33303120500050495C
:1001F000442073657474696E67733A00205A002056
:10020000590020204D323036205800486F6D65204F
:100210006F666673657420286D6D293A002045006D
:10022000205A0020580020420020540020204D3247
:100230003035205300416476616E636564207661D9
:10024000726961626C65733A20533D4D696E206638
:100250006565647261746520286D6D2F73292C208B
:10026000543D4D696E2074726176656C20666565DB
:10027000647261746520286D6D2F73292C20423DB6
:100280006D696E696D756D207365676D656E74203F
:1002900074696D6520286D73292C20583D6D617837
:1002A000696D756D205859206A65726B20286D6DD7
:1002B0002F73292C20205A3D6D6178696D756D2052
:1002C0005A206A65726B20286D6D2F73292C2020AF
:1002D000453D6D6178696D756D2045206A65726B6D
:1002E00020286D6D2F73290020540020204D3230BE
:1002F00034205300416363656C65726174696F6E8D
:100300003A20533D616363656C65726174696F6E19
:100310002C20543D7265747261637420616363655F
:100320006C65726174696F6E00204500205A002070
:10033000590020204D3230312058004D6178696DD0
:10034000756D20416363656C65726174696F6E20C1
:10035000286D6D2F7332293A00204500205A002065
:10036000590020204D3230332058004D6178696D9E
:10037000756D2066656564726174657320286D6DA6
:100380002F73293A00204500205A002059002020D0
:100390004D39322058005374657073207065722097
:1003A000756E69743A0053657474696E677320538F
:1003B000746F726564006563686F3A005041524122
:1003C00044412E2000496D70726573736F72612015
:1003D00070617261646120706F72206572726F73F8
:1003E0002E20436F7365727465206F206572726F83
:1003F000206520757365204D39393920706172612F
:10040000207265636F6D65C3A76172212E20285429
:10041000656D7065726174757261207265696E696F
:1004200063696164612E20416A7573746520616E31
:10043000746573206465207265636F6D65C3A76121
:1004400072290050415241444120444520454D45C8
:1004500052472E00496D70726573736F7261207020
:10046000617261646120636F6D206B696C6C282917
:10047000202121006F6B005265656E766961723ACA
:10048000002200436F6D616E646F20646573636F5B
:100490006E68656369646F3A220054726F636172BB
:1004A0002046696C616D656E746F005A204F6666F8
:1004B000736574203A20007A5F6D61783A20007A83
:1004C0005F6D696E3A20005A204F6666736574004E
:1004D0005A204F6666736574206F6B007A5F6D619A
:1004E000783A20007A5F6D696E3A2000795F6D611D
:1004F000783A2000795F6D696E3A2000785F6D610F
:10050000783A2000785F6D696E3A2000205A3A00F0
:1005100020593A0020436F6E746120583A002045FC
:100520003A00205A3A0020593A00583A00464952B7
:100530004D574152455F4E414D453A4D61726C6990
:100540006E2056313B20537072696E7465722F674E
:1005500072626C206D617368757020666F722067BF
:10056000656E36204649524D574152455F55524CB3
:100570003A687474703A2F2F6669726D776172658C
:100580002E756C74696D616B65722E636F6D205092
:10059000524F544F434F4C5F56455253494F4E3A7A
:1005A000312E30204D414348494E455F5459504506
:1005B0003A4465736B626F782045585452554445F0
:1005C000525F434F554E543A3120555549443A30C5
:1005D000303030303030302D303030302D30303021
:1005E000302D303030302D30303030303030303011
:1005F0003030300A004465736B626F78204F666656
:100600002E004465736B626F782070726F6E746138
:10061000210042617365207175656E74652E00203E
:10062000423A0020453A00543A00417175656365CD
:100630006E646F206120426173652E0041717565A3
:100640006369646F2E0020573A0020453A00543AFF
:10065000004171756563656E646F2E2E2E00204219
:10066000403A0020403A00202F003A002054002059
:100670002F0020423A00202F006F6B20543A0025B3
:1006800069206D696E2C20256920736563004669B9
:100690006D206461206C69737461206465206172EF
:1006A000717569766F7300436F6D65C3A76F2064C2
:1006B00061206C6973746120646520617271756971
:1006C000766F730053656D206D6F76696D656E741E
:1006D0006F005265746F6D616E646F20696D70722A
:1006E0002E004573706572616E646F206F72646571
:1006F0006D005265706F75736F2E2E2E0025692068
:10070000686F757273202569206D696E75746573E5
:1007100000496D7072657373616F207465726D69E5
:100720006E616461005041524144412E2000496D88
:1007300070726573736F72612070617261646120A1
:10074000706F72206572726F732E20436F736572C3
:100750007465206F206572726F2065207573652047
:100760004D3939392070617261207265636F6D6532
:10077000C3A76172212E202854656D706572617463
:10078000757261207265696E6963696164612E20AA
:10079000416A7573746520616E74657320646520A9
:1007A0007265636F6D65C3A7617229006F6B004E40
:1007B000616F206861206F206E756D65726F2064B7
:1007C00061206C696E686120636F6D206F206368C3
:1007D00065636B73756D2C20556C74696D61206C4D
:1007E000696E68613A004E616F20666F6920706FB4
:1007F00073736976656C20656E636F6E7472617277
:10080000206F20636865636B73756D20636F6D2067
:100810006F206E756D65726F206461206C696E6803
:10082000612C20556C74696D61206C696E68612063
:100830003A004F20636865636B73756D204E616F7E
:1008400020636F696E636964652C20556C74696DF3
:1008500061206C696E68613A004F204E756D65725B
:100860006F206461206C696E6861204E616F206545
:1008700020696775616C20616F20756C74696D6F9C
:10088000204E756D65726F206461206C696E6861C1
:100890002B312C20556C74696D61206C696E686118
:1008A0003A004D31313000477561726461646F2EDA
:1008B000006F6B004D3239002020506C616E6E6508
:1008C0007242756666657242797465733A200020DB
:1008D0006D656D6F726961204C697672653A2000B2
:1008E000446563202033203230313500436F6D7012
:1008F000696C65643A20002844617669642042721C
:1009000061616D2900207C20417574686F723A2006
:100910000044656320203320323031352031353AB0
:1009200031333A30330020556C74696D6120617445
:1009300075616C697A6163616F3A2000312E302EE7
:1009400030004D61726C696E0020526573657420D1
:10095000706F7220536F6674776172650020526504
:1009600073657420706F7220426C6F717565696F6A
:100970000020526573657420706F7220766F6C74FE
:100980006167656D20696E636F72726574610020C6
:1009900052657365742045787465726E6F00506F90
:1009A0007765725570007374617274002200656E11
:1009B000717565696E672022002200656E7175652C
:1009C000696E67202200FFFFFF0000A0400000A02A
:1009D000400000004000004D4300004D430000482F
:1009E0004300000000000000000000000000004D77
:1009F0004300004D43000048430000000000000099
:100A000000000000006563686F3A004572726F7203
:100A10003A0041414141E14141434545454549494C
:100A2000494944EE4F4F4F4FEF784F555555F559C3
:100A300054E261616161E161616365656565696990
:100A4000696964EE6F6F6F6FEFFD6F757575F5799E
:100A50007479007C3C3E5E2B3D3F2F5B5D3B2C2A36
:100A6000225C004D383420582059205A2045004E31
:100A7000616F20706F6465206162726972206F20FF
:100A80007375622064697265746F72696F3A004DA4
:100A90003234004D3233202573006175746F25693F
:100AA0002E67004572726F20616F206573637265F7
:100AB000766572206E6F206172717569766F004E77
:100AC000616F206573746120736520696D70726950
:100AD0006D696E646F20636F6D206F205344002F2B
:100AE00000534420696D7072696D696E646F206F88
:100AF000206279746520002E0044656C6574696F0E
:100B00006E206661696C65642C2046696C653A20CC
:100B10000046696C652064656C657465643A002EF6
:100B2000006F70656E206661696C65642C20466993
:100B30006C653A2000457363726576656E646F205C
:100B40006E6F206172717569766F3A20002E0045D4
:100B500072726F20616F2061627269722C20417223
:100B6000717569766F3A20002E004572726F2061B0
:100B70006F2061627269722C204172717569766FA3
:100B80003A20004172717569766F2073656C6563F8
:100B9000696F6E61646F002053697A653A00417233
:100BA000717569766F2061626572746F3A002E000C
:100BB0004572726F20616F2061627269722C2041F0
:100BC00072717569766F3A20004E6F772066726594
:100BD00073682066696C653A20004E6F7720646FF9
:100BE000696E672066696C653A20002220706F7319
:100BF000002220706172656E743A22005355425291
:100C00004F5554494E452043414C4C207461726706
:100C100065743A2200747279696E6720746F20637C
:100C2000616C6C207375622D67636F646520666903
:100C30006C6573207769746820746F6F206D616EC6
:100C400079206C6576656C732E204D4158206C655B
:100C500076656C2069733A0063617274616F20532A
:100C600044206F6B0046616C686120616F20616297
:100C70007269722064697265746F72696F20726143
:100C8000697A0046616C686120616F206D6F6E74D7
:100C9000617220766F6C756D650046616C686120CD
:100CA000616F20696E6963696172205344006563F6
:100CB000686F3A004572726F723A0020457874721C
:100CC0007573616F206D7569746F206C61726761F7
:100CD000206576697461646100204578747275736B
:100CE000616F2061206672696F2065766974616446
:100CF00061006563686F3A004F20706F6E746F20FB
:100D000066696E616C20666F6920746F6361646FE1
:100D10003A205A00205A3A004F20706F6E746F20AC
:100D200066696E616C20666F6920746F6361646FC1
:100D30003A20590020593A004F20706F6E746F208E
:100D400066696E616C20666F6920746F6361646FA1
:100D50003A20580020583A004F20706F6E746F2070
:100D600066696E616C20666F6920746F6361646F81
:100D70003A200024F4D43050C38E20C2A2401782FF
:100D80008B7011127A910D816CD90AA861E108C7A4
:100D9000586607615143061E4B5D05C145A7041AFD
:100DA000411104093D9803713931034036DB026576
:100DB000339102D4305402802E1D02632CEE017553
:100DC0002AC501B028A001102781018F2564012BBD
:100DD000244B01E0223401AC211F018D200D018044
:100DE0001FFC00841EED00971DDF00B81CD200E63A
:100DF0001BC600201BBC00641AB200B219A8000A6E
:100E000019A0006A189900D117910040178B00B5FE
:100E100016840031167E00B31579003A157300C7A9
:100E2000146F0058146A00EE1366008813630025DF
:100E3000135E00C7125B006C12570015125400C1FC
:100E400011510070114F0021114B00D61049008D37
:100E50001047004610440002104200C00F400080BE
:100E60000F3E00420F3C00060F3B00CB0E380093B4
:100E70000E37005C0E3500270E3400F30D3200C132
:100E80000D3100900D3000600D2E00320D2D00054B
:100E90000D2C00D90C2B00AE0C2900850C29005C10
:100EA0000C2700350C27000E0C2600E80B2400C48C
:100EB0000B2400A00B23007D0B23005A0B210039CB
:100EC0000B2100180B2000F80A1F00D90A1E00BBD6
:100ED0000A1E009D0A1D00800A1D00630A1C0047AF
:100EE0000A1B002C0A1B00110A1A00F7091A00DD60
:100EF000091900C4091900AB091900920917007BF0
:100F0000091800630917004C09160036091600205D
:100F10000916000A091500F5081500E0081400CCB0
:100F2000081400B8081400A4081400900813007DE9
:100F30000812006B0813005808120046081200340B
:100F4000081100230811001208110001081100F017
:100F5000071000E0071000D0071000C0071000B015
:100F6000070F00A107100091070E0083070F007400
:100F7000070F0065070E0057070E0049070E003BDC
:100F8000070D002E070E0020070D0013070D0006A9
:100F9000070D00F9060C00ED060D00E0060C00D46C
:100FA000060C00C8060C00BC060C00B0060C00A421
:100FB000060B0099060C008D060B0082060B0077CD
:100FC000060B006C060B0061060A0057060B004C6E
:100FD000060A0042060A0038060A002E060A002405
:100FE000060A001A060A001006090007060A00FD94
:100FF000050900F4050900EB050900E2050900D91F
:10100000050900D0050900C7050900BE050900B59E
:10101000050800AD050800A50509009C0508009419
:101020000508008C050800840508007C050800748C
:101030000508006C050700650508005D05070056FA
:101040000508004E05070047050700400508003861
:10105000050700310507002A050700230507001CC6
:10106000050600160507000F050700080506000223
:10107000050700FB040600F5040700EE040600E87F
:10108000040600E2040700DB040600D5040600CFD6
:10109000040600C9040600C3040600BD040600B728
:1010A000040600B1040500AC040600A6040600A076
:1010B0000405009B04060095040500900406008AC0
:1010C00004050085040500800406007A0405007507
:1010D000040500700405006B04050066040500614A
:1010E0000405005C04050057040500520405004D8A
:1010F00004050048040500430405003E0404003ACA
:1011000004050035040500300404002C0405002704
:10111000040400230405001E0404001A040400163D
:10112000040500110404000D040400090405000472
:1011300004040000040400FC030400F8030400F4A9
:10114000030400F0030400EC030400E8030400E4DB
:10115000030400E0030400DC030400D8030400D40B
:10116000030400D0030400CC030400C8030300C53B
:1011700003030024F404D9201BC40C5C0E9804C49F
:10118000095F0265077101F405F900FB04B300482B
:10119000048700C10369005803550003034500BEDE
:1011A000023A008402310053022A00290225000479
:1011B000022000E4011C00C8011900AF01170098CB
:1011C000011400840113007101100061011000512D
:1011D000010E0043010D0036010B002B010B002016
:1011E000010B00150109000C01090003010800FBB7
:1011F000000800F3000800EB000700E4000600DE32
:10120000000600D8000600D2000600CC000500C78A
:10121000000500C2000500BD000400B9000400B5CF
:10122000000400B1000400AD000400A9000400A502
:10123000000300A20003009F0004009B000300982D
:101240000003009500020093000300900003008D4E
:101250000002008B00030088000200860002008468
:10126000000300810002007F0002007D0002007B7D
:10127000000200790002007700010076000200748D
:1012800000020072000100710002006F0002006D98
:101290000001006C0002006A0001006900020067A2
:1012A00000010066000100650001006400020062A8
:1012B00000010061000100600001005F0002005DAC
:1012C0000001005C0001005B0001005A00010059B0
:1012D00000010058000100570001005600010055B0
:1012E00000010054000100530000005300010052AF
:1012F00000010051000100500001004F0001004EAC
:101300000000004E0001004D0001004C0001004BA8
:101310000000004B0001004A0001004900010048A4
:1013200000000048000100470001004600000046A0
:101330000001004500000045000100440001004399
:101340000000004300010042000000420001004193
:1013500000000041000100400001003F0000003F8C
:101360000001003E0000003E0001003D0000003D85
:101370000001003C0000003C0000003C0001003B7C
:101380000000003B0001003A0000003A0001003973
:10139000000000390001003800000038000000386B
:1013A0000001003700000037000100360000003661
:1013B0000000003600010035000000350000003557
:1013C000000100340000003400000034000100334C
:1013D0000000003300000033000100320000003242
:1013E0000000003200010031000000310000003137
:1013F0000001003000000030000000300001002F2C
:101400000000002F0000002F0000002F0001002E20
:101410000000002E0000002E0001002D0000002D15
:101420000000002D0000002D0001002C0000002C09
:101430000000002C0000002C0001002B0000002BFD
:101440000000002B0000002B0001002A0000002AF1
:101450000000002A0000002A0001002900000029E5
:1014600000000029000000290000002900010028D8
:1014700000000028000000280000002800000028CC
:1014800000010027000000270000002700000027BF
:1014900000000027000100260000002600000026B2
:1014A00000000026000000260001002500000025A5
:1014B0000000002500000025000000250000002598
:1014C000000100240000002400000024000000248B
:1014D000000000240001002300000023000000237E
:1014E0000000002300000023000000230000002370
:1014F0000001002200000022000000220000002263
:101500000000002200000022000100210000002154
:101510000000002100000021000000210000002147
:101520000000002100010020000000200000002039
:10153000000000200000002000000020000000202B
:10154000000000200001001F0000001F0000001F1D
:101550000000001F0000001F0000001F0000001F0F
:101560000001001E0000001E0000001E0000001E02
:101570000000006563686F3A004572723A204D4979
:101580004E54454D50003A2045787472756465722A
:10159000207377697463686564206F66662E204DDA
:1015A000494E54454D502074726967676572656491
:1015B0002021004572723A204D415854454D50004B
:1015C0003A20457874727564657220737769746324
:1015D000686564206F66662E204D415854454D5015
:1015E00020747269676765726564202100486561CF
:1015F00074696E67206661696C656400202D2049FE
:101600006E76616C696420657874727564657220A9
:101610006E756D62657220210050494420417574D9
:101620006F74756E652066696E69736865642120E4
:1016300050757420746865206C617374204B702C35
:10164000204B6920616E64204B6420636F6E73745D
:10165000616E74732066726F6D2061626F766520B3
:10166000696E746F20436F6E666967757261746925
:101670006F6E2E6800504944204175746F74756E0A
:1016800065206661696C6564212074696D656F759C
:10169000740020403A006F6B20543A006F6B204278
:1016A0003A00504944204175746F74756E65206628
:1016B00061696C6564212054656D70657261747533
:1016C000726520746F6F206869676800204B643A08
:1016D0002000204B693A2000204B703A2000204324
:1016E0006C61737369632050494420002054753A3B
:1016F0002000204B753A2000206D61783A200020B0
:101700006D696E3A200020643A200020626961739E
:101710003A20006563686F3A004572726F723A0052
:1017200043617274616F2072656D6F7669646F00DA
:1017300043617274616F20696E73657269646F00D2
:101740002D2D3A2D2D002D2D2D0053440020590014
:101750000120004D3630300054726F6361722046B4
:10176000696C616D656E746F00466C75786F3000E2
:10177000466C75786F3000466C75786F00466C75F6
:10178000786F0056656C2076656E74696C61646F65
:10179000720056656C2076656E74696C61646F7258
:1017A00000024269636F00024269636F0056656C14
:1017B0006F6369646164650056656C6F6369646139
:1017C000646500204D656E75207072696E63697086
:1017D000616C200300580059005A004578747275F6
:1017E000646572004578747275736F72004D6F7620
:1017F00065205A004D6F76652059004D6F76652043
:1018000058004D6F766572206569786F2020202022
:1018100020207E004D6F766520302E316D6D004D9D
:101820006F766520316D6D004D6F76652031306DBE
:101830006D005072657061726172207E004D6F762E
:101840006572206569786F2020202020207E004D61
:101850003830004C6967617220456E657267696156
:10186000004D3831004465736C6967617220456EC4
:1018700065726769610045736672696172005072D2
:10188000652D6171756563657220504C410047326A
:10189000380049722070617261206F726967656DEE
:1018A000004D3834004465736C69676172206D6F58
:1018B000746F72657300204D656E75207072696E6D
:1018C000636970616C200300477561726461722006
:1018D0006D656D6F72696100024269636F0002425B
:1018E00069636F0056656C2076656E74696C61641F
:1018F0006F720056656C2076656E74696C61646FFA
:10190000720054656D706572617475726100416A30
:10191000757374657320504C410056656C20766574
:101920006E74696C61646F720056656C2076656ECA
:1019300074696C61646F7200024269636F000242F5
:1019400069636F00436F6E74726F6C6520030044AF
:10195000656320203320323031352031353A313340
:101960003A30370047697468756220636865636B55
:101970006F7574004465736B626F783A2044455606
:101980000056657273616F204669726D776172658A
:101990000056657273616F204669726D776172657A
:1019A00000526573742E20646520656D65726765ED
:1019B0006E2E004361727265676172206D656D6F96
:1019C0007269610047756172646172206D656D6F47
:1019D0007269610054656D70657261747572610041
:1019E000204D656E75207072696E636970616C2040
:1019F00003004D383420582059205A2045004D32DC
:101A000034004D323320257300052E2E00204D6505
:101A10006E75207072696E636970616C200300538B
:101A2000656D2063617274616F205344004D656E73
:101A3000752063617274616F20534400506172615C
:101A40007220696D7072657373616F005265746F97
:101A50006D617220696D7072657373616F005061A2
:101A60007573617220696D7072657373616F004385
:101A70006F6E74726F6C65200300507265706172D6
:101A80006172207E00416A7573746172202020208B
:101A90007E004D6F6E69746F7261722020200300AA
:101AA00000000A0B02090C0D0E08070304010000D8
:101AB0000000000000000000000000000000000026
:101AC00000000000000000000000000012111000E3
:101AD0000000000000000000000000000000000006
:101AE0000000000000000102102020080810204023
:101AF00010204080020102010804020101020408D2
:101B0000102040808040201008040201800402015F
:101B100080402010080402010804020101020408A8
:101B200010204080010204081020408005050505B2
:101B3000070508080808020202020A0A0808040445
:101B40000404010101010101010103030303030373
:101B50000303040707070C0C0C0C0C0C0C0C020202
:101B6000020206060606060606060B0B0B0B0B0BFF
:101B70000B0B00002200250028002B002E00310056
:101B8000340002010000050108010B0100002100E2
:101B9000240027002A002D0030003300010100003E
:101BA000040107010A01024E414E494E4954594968
:101BB0004E46CDCCCC3D0AD7233C17B7D13877CC95
:101BC0002B329595E6241FB14F0A000020410000FA
:101BD000C84200401C4620BCBE4CCA1B0E5AAEC5B3
:101BE0009D747039B490743911241FBECFEFD1E2C7
:101BF000DEBFCDBF00E00CBF14E0A0E0B2E0ECEA35
:101C0000F1E501E00BBF02C007900D92AC3AB107BD
:101C1000D9F722E1ACEAB4E001C01D92A736B207C1
:101C2000E1F71BE1C6EEDBE100E006C02297010907
:101C3000FE010BBF0E9496A2C23ED10780E00807BA
:101C4000A9F70E94899D0C94C5A80C940000EF92FE
:101C5000FF920F931F93CF93DF931F92CDB7DEB701
:101C60008C017B01460FF70161917F01F8018081B2
:101C7000918149830E940EA8F8018081918101968B
:101C80009183808349814E11EECF0F90DF91CF91E8
:101C90001F910F91FF90EF900895EF92FF920F9395
:101CA0001F93CF93DF931F92CDB7DEB78C017B01DB
:101CB000460FF8018081918149830E9406A8F701AF
:101CC00081937F01F80180819181019691838083C6
:101CD00049814E11EECF0F90DF91CF911F910F915F
:101CE000FF90EF9008950F931F93CF93DF93CDB79D
:101CF000DEB72C970FB6F894DEBF0FBECDBF80E3E2
:101D000090E3A0E3B0E08D839E83AF83B88704E6C1
:101D100010E01C870B8744E0BE016B5F7F4FCE0154
:101D20000B9695DF40E16BE071E1CE010B968FDF02
:101D300040E16BE171E1CE010B9689DF40E16BEF91
:101D400070E1CE010B9683DF44E063EF70E1CE01DA
:101D50000B967DDF44E06FEE70E1CE010B9677DFEE
:101D600044E067EF70E1CE010B9671DF44E06FED68
:101D700070E1CE010B966BDF44E06BE271E1CE01C6
:101D80000B9665DF44E06BEE70E1CE010B965FDFF2
:101D900044E067EE70E1CE010B9659DF44E063EE5C
:101DA00070E1CE010B9653DF4CE06CE177E0CE01A1
:101DB0000B964DDF42E06BE272E1CE010B9647DFFE
:101DC00042E069E272E1CE010B9641DF42E067E258
:101DD00072E1CE010B963BDF42E065E272E1CE019B
:101DE0000B9635DF42E063E272E1CE010B962FDF06
:101DF00042E061E272E1CE010B9629DF44E069E046
:101E000077E0CE010B9623DF44E062E572E0CE017D
:101E10000B961DDF44E06EE472E0CE010B9617DFF7
:101E200044E06AE472E0CE010B9611DF80E290E0BC
:101E30009A87898742E0BE01675F7F4FCE010B968C
:101E400006DF86E591E3A0E3B0E089839A83AB8364
:101E5000BC831C870B8744E0BE016F5F7F4FCE01C0
:101E60000B96F5DEE6EBF3E08491882341F0909148
:101E7000C00095FFFCCF8093C6003196F5CFE6EA0F
:101E8000F3E08491882341F09091C00095FFFCCF4E
:101E90008093C6003196F5CF8091C00085FFFCCFBE
:101EA0008AE08093C6002C960FB6F894DEBF0FBE72
:101EB000CDBFDF91CF911F910F910895CF93DF9305
:101EC000C6EBD3E0FE018491882341F09091C000DD
:101ED00095FFFCCF8093C6003196F5CFE6E9F3E09D
:101EE0008491882341F09091C00095FFFCCF8093AE
:101EF000C6003196F5CF8091C00085FFFCCF8AE007
:101F00008093C600FE018491E6EBF3E0882349F05C
:101F10009091C00095FFFCCF8093C60031968491CC
:101F2000F5CF40910B1150910C1160910D117091F2
:101F30000E118EE893E00E940A1840910F11509103
:101F4000101160911111709112118BE893E00E94B1
:101F50000A1840911311509114116091151170914C
:101F6000161188E893E00E940A18409117115091C9
:101F700018116091191170911A1185E893E00E946F
:101F80000A188091C00085FFFCCF8AE08093C600CC
:101F9000FE018491E6EBF3E0882349F09091C000C4
:101FA00095FFFCCF8093C60031968491F5CFEBE688
:101FB000F3E08491882341F09091C00095FFFCCF1D
:101FC0008093C6003196F5CF8091C00085FFFCCF8D
:101FD0008AE08093C600FE018491E6EBF3E088235B
:101FE00049F09091C00095FFFCCF8093C6003196D8
:101FF0008491F5CF40911B1150911C1160911D11DE
:1020000070911E1182E693E00E940A1840911F1100
:102010005091201160912111709122118FE593E070
:10202000F9D740912311509124116091251170919D
:1020300026118CE593E0EED740912711509128119D
:102040006091291170912A1189E593E0E3D780917D
:10205000C00085FFFCCF8AE08093C600FE0184911A
:10206000E6EBF3E0882349F09091C00095FFFCCFA8
:102070008093C60031968491F5CFEBE3F3E0849131
:10208000882341F09091C00095FFFCCF8093C6005B
:102090003196F5CF8091C00085FFFCCF8AE0809318
:1020A000C600FE018491E6EBF3E0882349F09091AD
:1020B000C00095FFFCCF8093C60031968491F5CF88
:1020C0004091FB105091FC106091FD107091FE103A
:1020D00082E393E0B0D74091FF10509100116091DE
:1020E0000111709102118FE293E0A5D74091031185
:1020F0005091041160910511709106118CE293E0EA
:102100009AD740910711509108116091091170916F
:102110000A1189E293E08FD78091C00085FFFCCF40
:102120008AE08093C600FE018491E6EBF3E0882309
:1021300049F09091C00095FFFCCF8093C600319686
:102140008491F5CFE4EFF2E08491882341F09091FF
:10215000C00095FFFCCF8093C6003196F5CF8091EB
:10216000C00085FFFCCF8AE08093C600FE01849109
:10217000E6EBF3E0882349F09091C00095FFFCCF97
:102180008093C60031968491F5CF4091F310509121
:10219000F4106091F5107091F6108BEE92E03AD742
:1021A0004091EF105091F0106091F1107091F21089
:1021B00088EE92E02FD78091C00085FFFCCF8AE0A7
:1021C0008093C600FE018491E6EBF3E0882349F09A
:1021D0009091C00095FFFCCF8093C600319684910A
:1021E000F5CFE5E3F2E08491882341F09091C000BF
:1021F00095FFFCCF8093C6003196F5CF8091C0004B
:1022000085FFFCCF8AE08093C600FE018491E6EB57
:10221000F3E0882349F09091C00095FFFCCF8093B4
:10222000C60031968491F5CF4091F7105091F81087
:102230006091F9107091FA108CE292E0EBD6409127
:10224000DF105091E0106091E1107091E21089E28E
:1022500092E0E0D640912B1150912C1160912D11FC
:1022600070912E1186E292E0E6D64091EB105091EB
:10227000EC106091ED107091EE1083E292E0CAD6FE
:102280004091E7105091E8106091E9107091EA10C8
:1022900080E292E0BFD64091E3105091E41060914B
:1022A000E5107091E6108DE192E0B4D68091C00007
:1022B00085FFFCCF8AE08093C600FE018491E6EBA7
:1022C000F3E0882349F09091C00095FFFCCF809304
:1022D000C60031968491F5CFEBE0F2E0849188233B
:1022E00041F09091C00095FFFCCF8093C6003196DD
:1022F000F5CF8091C00085FFFCCF8AE08093C600B7
:10230000FE018491E6EBF3E0882349F09091C00050
:1023100095FFFCCF8093C60031968491F5CF409114
:102320001C0750911D0760911E0770911F0782E0E6
:1023300092E070D6409120075091210760912207CA
:10234000709123078FEF91E065D64091240750915B
:10235000250760912607709127078CEF91E05AD6E8
:102360008091C00085FFFCCF8AE08093C600FE010B
:102370008491E6EBF3E0882349F09091C00095FF4B
:10238000FCCF8093C60031968491F5CFEEEEF1E05C
:102390008491882341F09091C00095FFFCCF8093F9
:1023A000C6003196F5CF8091C00085FFFCCF8AE052
:1023B0008093C600FE01C491E6EBF3E0CC2349F024
:1023C0008091C00085FFFCCFC093C6003196C491B8
:1023D000F5CF409152025091530260915402709196
:1023E000550284EE91E016D660914E0270914F0234
:1023F00080915002909151020E946179AB01BC0121
:1024000081EE91E007D660914A0270914B02809173
:102410004C0290914D020E946D79AB01BC018EED92
:1024200091E0F8D58091C00085FFFCCF8AE08093D1
:10243000C600DF91CF910895AF92BF92CF92DF9205
:10244000EF92FF920F931F93CF93DF93CDB7DEB739
:10245000E0970FB6F894DEBF0FBECDBF80E1EFE688
:10246000F2E0DE01919601900D928A95E1F780E10C
:10247000EFE7F2E0DE01519601900D928A95E1F7C7
:1024800080E1EFE8F2E0DE01119601900D928A956D
:10249000E1F76E0181E2C80ED11C8BE0E82E81E1EC
:1024A000F82E8E010F5E1F4F6BE171E1AE014F5FA1
:1024B0005F4F9BEFA92E90E1B92E20E030E0F601AE
:1024C00081919191A191B1916F01F70181939193C4
:1024D000A193B1937F01F80181919191A191B19163
:1024E0008F01FB0181939193A193B193BF01FA01F5
:1024F00081919191A191B191AF01F5018193919356
:10250000A193B1935F012F5F3F4F24303105B9F69E
:102510000E94C46680E090E0AAE7B5E48093F310DF
:102520009093F410A093F510B093F61080E090E82B
:10253000ABE3B5E48093EF109093F010A093F1100B
:10254000B093F2101092F7101092F8101092F91048
:102550001092FA1080E29EE4A0E0B0E080932B118C
:1025600090932C11A0932D11B0932E111092DF1087
:102570001092E0101092E1101092E21080E090E0D2
:10258000A0EAB1E48093EB109093EC10A093ED10CF
:10259000B093EE108DEC9CECACECBEE38093E710B6
:1025A0009093E810A093E910B093EA1080E090E0D7
:1025B000A0EAB0E48093E3109093E410A093E510B8
:1025C000B093E61010922407109225071092260768
:1025D00010922707109220071092210710922207CD
:1025E0001092230710921C0710921D0710921E07CD
:1025F00010921F0782ED90E090932C1280932B1283
:1026000086E490E090932A12809329121092281267
:10261000109227128AEF90E0909326128093251251
:1026200084E690E090932412809323121092221259
:10263000109221128AE999E9A1EBB1E48093520248
:1026400090935302A0935402B093550261E77DE347
:102650008AE89FE30E945B7960934E0270934F0279
:10266000809350029093510260E070E084EE92E417
:102670000E94677960934A0270934B0280934C02E8
:1026800090934D020E94667080E090E0A0E8BFE366
:102690008093460290934702A0934802B093490268
:1026A000E6EBF3E08491882341F09091C00095FF20
:1026B000FCCF8093C6003196F5CFE2EAF1E0849139
:1026C000882341F09091C00095FFFCCF8093C60015
:1026D0003196F5CF8091C00085FFFCCF8AE08093D2
:1026E000C600E0960FB6F894DEBF0FBECDBFDF91F7
:1026F000CF911F910F91FF90EF90DF90CF90BF90FF
:10270000AF900895CF93DF93CDB7DEB72C970FB678
:10271000F894DEBF0FBECDBF84E690E09C878B8728
:1027200086E591E3A0E3B0E089839A83AB83BC8321
:1027300044E0BE016B5F7F4FCE010B96AEDA43E003
:1027400050E0BE016B5F7F4FCE0101960E94CDA588
:10275000892B09F0B1C040E16BE071E1CE010B962D
:102760009CDA40E16BE171E1CE010B9696DA40E133
:102770006BEF70E1CE010B9690DA0E94C46644E0E4
:1027800063EF70E1CE010B9688DA44E06FEE70E102
:10279000CE010B9682DA44E067EF70E1CE010B9632
:1027A0007CDA44E06FED70E1CE010B9676DA44E01E
:1027B0006BE271E1CE010B9670DA44E06BEE70E1F2
:1027C000CE010B966ADA44E067EE70E1CE010B961B
:1027D00064DA44E063EE70E1CE010B965EDA4CE021
:1027E0006CE177E0CE010B9658DA42E06BE272E1E1
:1027F000CE010B9652DA42E069E272E1CE010B960D
:102800004CDA42E067E272E1CE010B9646DA42E032
:1028100065E272E1CE010B9640DA42E063E272E1DA
:10282000CE010B963ADA42E061E272E1CE010B96FC
:1028300034DA44E069E077E0CE010B962EDA44E02A
:1028400062E572E0CE010B9628DA44E06EE472E0B5
:10285000CE010B9622DA44E06AE472E0CE010B96D8
:102860001CDA42E0BE01675F7F4FCE010B9615DA9E
:102870000E946670E6EBF3E08491882341F090912A
:10288000C00095FFFCCF8093C6003196F5CFE4ECF5
:10289000F1E08491882341F09091C00095FFFCCF36
:1028A0008093C6003196F5CF8091C00085FFFCCFA4
:1028B0008AE08093C60001C0BFDD00DB2C960FB616
:1028C000F894DEBF0FBECDBFDF91CF9108951F9268
:1028D0000F920FB60F9211240BB60F922F933F93C6
:1028E0004F935F936F938F939F93EF93FF936091B9
:1028F000C60020912D0530912E05C90101968F77D4
:10290000992740912F05509130058417950741F084
:10291000F901E355FB4F608390932E0580932D05BD
:10292000FF91EF919F918F916F915F914F913F91A7
:102930002F910F900BBE0F900FBE0F901F90189508
:102940009A01AB01211581EE38074105510549F186
:1029500082E08093C00060E079E08DE390E00E9427
:1029600064A22150310941095109CA01B90122E08B
:1029700030E040E050E00E9464A23093C500209314
:10298000C4008091C10080618093C1008091C1002A
:1029900088608093C1008091C10080688093C100ED
:1029A00008951092C00020E130E0E7CF20912F057C
:1029B0003091300580912D0590912E058217930757
:1029C00071F0F901E355FB4F80812F5F3F4F2F7767
:1029D00033273093300520932F0590E008958FEF33
:1029E0009FEF089580912F059091300590932E05CB
:1029F00080932D0508954F925F926F927F928F92F0
:102A00009F92AF92BF92CF92DF92EF92FF920F937D
:102A10001F93CF93DF93CDB7DEB7A0970FB6F8948F
:102A2000DEBF0FBECDBF5C014115510561057105CB
:102A3000E9F420E030E040E350E060E070E0A09690
:102A40000FB6F894DEBF0FBECDBFDF91CF911F91BF
:102A50000F91FF90EF90DF90CF90BF90AF909F903D
:102A60008F907F906F905F904F905BC08E010F5F53
:102A70001F4FC12CD12C76014801422E512C612CC4
:102A8000712C8FEFC81AD80AE80AF80ACB01BA01EC
:102A9000A30192010E9442A2CA01F80161938F0131
:102AA000A901BC01411551056105710551F7F1E01E
:102AB000CF1AD108E108F108F401EC0DFD1D808169
:102AC0008A3010F440E301C047E3480F552747FD23
:102AD0005095652F752F20E030E0C50122D081E0B0
:102AE000C81AD108E108F108EFEFCE16DE06EE06AF
:102AF000FE0611F7A0960FB6F894DEBF0FBECDBF4D
:102B0000DF91CF911F910F91FF90EF90DF90CF90C9
:102B1000BF90AF909F908F907F906F905F904F90FD
:102B200008952115310539F48091C00085FFFCCF4F
:102B30004093C60008952A30310509F41CC05BCFCC
:102B4000CF93DF93EC0120E030E04DE050E060E017
:102B500070E0E7DF20E030E04AE050E060E070E065
:102B6000CE01DF91CF91DDCF9A01AB01662757FDF2
:102B70006095762FD6CFCF92DF92EF92FF92CF93D0
:102B8000DF93EC016A017B0177FF0FC020E030E0AA
:102B90004DE250E060E070E0C4DFF094E094D09447
:102BA000C094C11CD11CE11CF11C2AE0B701A60194
:102BB000CE01DF91CF91FF90EF90DF90CF901BCFB0
:102BC0002115310539F48091C00085FFFCCF409379
:102BD000C600089510CF9A01462F50E060E070E0E3
:102BE000EFCFCF93DF93EC019A01AB0160E070E08F
:102BF000E7DFCE01DF91CF91A3CF8F929F92AF926B
:102C0000BF92CF92DF92EF92FF921F93CF93DF9309
:102C1000EC016A017B01122F20E030E0A901C7011D
:102C2000B6010E94719E87FF0CC020E030E04DE2AB
:102C300050E060E070E0CE0174DFF7FAF094F7F84E
:102C4000F094B12C60E070E080E09FE3B11641F0B9
:102C500020E030E040E251E40E94789EB394F6CF49
:102C60009B01AC01C701B6010E94989D6B017C01DC
:102C70000E94E59E4B015C010E94119F9B01AC01EB
:102C8000C701B6010E94979D6B017C012AE0B50146
:102C9000A401CE01B0DE112361F0E2EAF4E08191FB
:102CA000882339F09091C00095FFFCCF8093C60037
:102CB000F6CF112319F120E030E040E251E4C701E2
:102CC000B6010E9446A16B017C010E94E09E4B016F
:102CD000AA2497FCA094BA2CB501A401CE014BDF25
:102CE000C501B4010E94139F9B01AC01C701B6014D
:102CF0000E94979D6B017C011150DBCFDF91CF913A
:102D00001F91FF90EF90DF90CF90BF90AF909F907A
:102D10008F90089572CFFC01659175918591949182
:102D20000895EF92FF920F931F93CF93DF93EC01DF
:102D3000CC0FDD1FCC0FDD1FCE018F51964FEBDF87
:102D40009E01285D384F79018E01045E184FF8010D
:102D500020813181428153810E94989DF7016083D7
:102D6000718382839383CE018750964FD4DF9E0177
:102D7000205F384F7901F8012081318142815381F0
:102D80000E94989DF7016083718382839383CE01B3
:102D90008351964FC0DFCF5EDD4FF8012081318136
:102DA000428153810E94989D688379838A839B83A3
:102DB000DF91CF911F910F91FF90EF9008952F9287
:102DC0003F924F925F926F927F928F929F92AF92BB
:102DD000BF92CF92DF92EF92FF920F931F93CF9308
:102DE000DF9300D01F92CDB7DEB74C01FC01EA5350
:102DF000F64FB490880F991F880F991F9C838B837F
:102E0000885D984F1C01FC0110821182128213828E
:102E100024E337E040E357E06CE277E088E297E0B4
:102E20000E94F2658B819C818B52964F74DF6B01FF
:102E30007C016B2D772767FD7095872F972F0E9458
:102E4000139F2B013C018B819C818A50994F5C011F
:102E500020E030E040EC5FE3C701B6010E9446A1EC
:102E6000A30192010E9446A1F501608371838283D0
:102E700093838B819C81895D9D4F9A838983FC011B
:102E8000608171818281938160930B0270930C0247
:102E900080930D0290930E0220E030E040E752E470
:102EA0000E94789E38E0C32E37E0D32E7B018C0140
:102EB00022E037E04EEF56E06AEF76E086EF96E0EC
:102EC0000E94595C0E94686FF10110821182128287
:102ED000138224E337E040E357E06CE277E088E2D6
:102EE00097E00E94F2658B819C818753964F9C836B
:102EF0008B8311DF9058A30192010E9446A1F50136
:102F0000608371838283938320E030E040E752E462
:102F100060910B0270910C0280910D0290910E0253
:102F20000E94789E7B018C0122E037E04EEF56E054
:102F30006AEF76E086EF96E00E94595C0E94686F27
:102F40008B819C81E8DE9B01AC010E94989DA301CE
:102F500092010E9446A1F50160837183828393836D
:102F600020E030E040E05FE3E981FA816081718137
:102F7000828193810E9446A160930B0270930C02A0
:102F800080930D0290930E0220E030E040E752E47F
:102F90000E94789E7B018C0122E037E04EEF56E0E4
:102FA0006AEF76E086EF96E00E94595C0E94686FB7
:102FB000C401B7DEF10180819181A281B381F50165
:102FC00080839183A283B38310920B0210920C0230
:102FD00010920D0210920E020E94A767F401E35FA7
:102FE000F84F81E080830F900F900F900F90DF914A
:102FF000CF911F910F91FF90EF90DF90CF90BF90F6
:10300000AF909F908F907F906F905F904F903F9088
:103010002F900895FC012491222341F03091C000AB
:1030200035FFFCCF2093C6000196F4CF22E030E0BC
:103030008CEA94E06FCEFC012491222341F0309180
:10304000C00035FFFCCF2093C6000196F4CF2AE0E4
:1030500030E08CEA94E0B4CDCF93DF931F921F92BF
:10306000CDB7DEB780916112909162129E012F5F01
:103070003F4F009719F42756324102C0281B390BE5
:103080003A83298389819A810F900F90DF91CF91A4
:10309000089520914B0530914C05243031050CF0FA
:1030A0006AC040914D0550914E0560E6649F9001C5
:1030B000659F300D1124BC01C9018B5A9A4F0E94A3
:1030C000C6A5E5E0FAE08491882341F09091C00024
:1030D00095FFFCCF8093C6003196F5CFEBEBF9E07E
:1030E0008491882341F09091C00095FFFCCF80939C
:1030F000C6003196F5CF80914D0590914E0520E6A2
:10310000289FF001299FF00D1124EB5AFA4F81916D
:10311000882339F09091C00095FFFCCF8093C600C2
:10312000F6CFE9EBF9E08491882341F09091C0005B
:1031300095FFFCCF8093C6003196F5CF8091C000FB
:1031400085FFFCCF8AE08093C60080914D05909169
:103150004E05019664E070E00E942FA290934E0508
:1031600080934D0580914B0590914C05019690936D
:103170004C0580934B05089520914B0530914C05EB
:10318000243031050CF06AC040914D0550914E0538
:1031900060E6649F9001659F300D1124BC01C90158
:1031A0008B5A9A4F0E9452A5E5E0FAE08491882359
:1031B00041F09091C00095FFFCCF8093C6003196FE
:1031C000F5CFEEEAF9E08491882341F09091C000B8
:1031D00095FFFCCF8093C6003196F5CF80914D05C9
:1031E00090914E0520E6289FF001299FF00D1124B3
:1031F000EB5AFA4F8191882339F09091C00095FFE6
:10320000FCCF8093C600F6CFECEAF9E084918823E6
:1032100041F09091C00095FFFCCF8093C60031969D
:10322000F5CF8091C00085FFFCCF8AE08093C60077
:1032300080914D0590914E05019664E070E00E94EA
:103240002FA290934E0580934D0580914B05909150
:103250004C05019690934C0580934B050895809AF8
:10326000889A269A2E980895809A88980895F7DF6C
:1032700040E950ED63E070E08CEA94E061DBE6EA5F
:10328000F9E08491882341F09091C00095FFFCCF34
:103290008093C6003196F5CF8091C00085FFFCCFAA
:1032A0008AE08093C60085E09AE0FC012491222305
:1032B00041F03091C00035FFFCCF2093C60031961D
:1032C000F5CF24B720FF14C0EEE9F9E034913323A1
:1032D00041F04091C00045FFFCCF3093C6003196CD
:1032E000F5CF3091C00035FFFCCF3AE03093C600F7
:1032F00021FF14C0EFE8F9E03491332341F040910D
:10330000C00045FFFCCF3093C6003196F5CF309119
:10331000C00035FFFCCF3AE03093C60022FF14C056
:10332000E1E7F9E03491332341F04091C00045FFDB
:10333000FCCF3093C6003196F5CF3091C00035FFF9
:10334000FCCF3AE03093C60023FF14C0EDE5F9E06E
:103350003491332341F04091C00045FFFCCF3093BE
:10336000C6003196F5CF3091C00035FFFCCF3AE072
:103370003093C60025FF14C0E9E4F9E0249122232C
:1033800041F03091C00035FFFCCF2093C60031964C
:10339000F5CF2091C00025FFFCCF2AE02093C60086
:1033A00014BEE2E4F9E02491222341F03091C00000
:1033B00035FFFCCF2093C6003196F5CFECE3F9E062
:1033C0002491222341F03091C00035FFFCCF20939F
:1033D000C6003196F5CF2091C00025FFFCCF2AE032
:1033E0002093C600FC012491E5E0FAE0222349F095
:1033F0003091C00035FFFCCF2093C6003196249158
:10340000F5CFE6E2F9E02491222341F03091C000AB
:1034100035FFFCCF2093C6003196F5CFE1E1F9E00E
:103420002491222341F03091C00035FFFCCF20933E
:10343000C6003196F5CFE5E0F9E02491222341F072
:103440003091C00035FFFCCF2093C6003196F5CFF8
:10345000E7EFF8E02491222341F03091C00035FFDE
:10346000FCCF2093C6003196F5CF2091C00025FFF8
:10347000FCCF2AE02093C600ECEEF8E02491222352
:1034800041F03091C00035FFFCCF2093C60031964B
:10349000F5CFE0EEF8E02491222341F03091C00016
:1034A00035FFFCCF2093C6003196F5CF2091C000A8
:1034B00025FFFCCF2AE02093C600FC018491E5E0C3
:1034C000FAE0882349F09091C00095FFFCCF8093EB
:1034D000C60031968491F5CFEFECF8E08491882313
:1034E00041F09091C00095FFFCCF8093C6003196CB
:1034F000F5CFB2DD4AE050E0BC018CEA94E034DB69
:10350000E8EBF8E08491882341F09091C00095FFAA
:10351000FCCF8093C6003196F5CF4AE050E060EDD5
:1035200074E08CEA94E020DB8091C00085FFFCCF42
:103530008AE08093C60010925105109252051092B5
:10354000530510925405DED80E9492720E94095CC5
:103550000E948A950E94E66E0E94B588FFEF23EDD7
:1035600080E3F15020408040E1F700C00000089562
:10357000809145059091460560E070E001960C94BD
:10358000A9A280914505909146054AE050E060E08F
:1035900070E001960C9411A4682F772767FD709551
:1035A00020914F053091500540E6429FC001439F56
:1035B000900D11248B5A9A4F0E94BBA590934605FB
:1035C0008093450521E0892B09F420E0822F08959E
:1035D0000E9468976093410570934205809343056C
:1035E0009093440508950E946897609341057093F5
:1035F00042058093430590934405E0914F05F09177
:103600005005EF5AFA4F8081811114C0E4E7F4E0CD
:103610008491882341F09091C00095FFFCCF809366
:10362000C6003196F5CF8091C00085FFFCCF8AE0BF
:103630008093C60008958CEA94E0D4D9E7E7F4E0DB
:103640008491882341F09091C00095FFFCCF809336
:10365000C6003196F5CF4091DA065091DB066091B5
:10366000DC067091DD064F5F5F4F6F4F7F4F2AE0A2
:1036700030E08CEA94E055DA8091C00085FFFCCF01
:103680008AE08093C600AFCF2F923F924F925F9215
:103690006F927F928F929F92AF92BF92CF92DF9262
:1036A000EF92FF920F931F93CF93DF93CDB7DEB7C7
:1036B0006E970FB6F894DEBF0FBECDBF70E6972EA3
:1036C00004E010E0EEE2EE2EE7E0FE2EFAE08F2EB0
:1036D000ACEACA2EA7E0DA2E7724739480912D05E8
:1036E00090912E0520912F0530913005821B930B70
:1036F0008F779927892B09F421C280914B059091EE
:103700004C0504970CF01AC28CEA94E04FD98093D0
:103710004A0520914805309149058A3061F08D3085
:1037200051F08A3321F490914705992321F02F35E8
:1037300031050CF427C12115310509F441C18091EF
:103740004D0590914E05989E5001999EB00C112404
:10375000F501E20FF31FEB5AFA4F10822091470553
:1037600021110BC1FC01EF5AFA4F108295012B5A1F
:103770003A4F19016EE470E0C9010E94BBA50097A1
:10378000E9F19093460580934505821993098A0DC6
:103790009B1D4AE050E060E070E08A5A9A4F0E9418
:1037A00011A46093DE067093DF068093E006909389
:1037B000E1062091DA063091DB064091DC0650915B
:1037C000DD062F5F3F4F4F4F5F4FA0904D05B090EC
:1037D0004E05621773078407950709F4F4C09A9C95
:1037E000C0019B9C900D112462EA78E08B5A9A4F9D
:1037F0000E9480A5892B09F0E6C073C16AE270E0DF
:10380000C1010E94BBA5892B09F443C0EBE0FAE09B
:103810008491882341F09091C00095FFFCCF809364
:10382000C6003196F5CFEFEAF7E08491882341F0A6
:103830009091C00095FFFCCF8093C6003196F5CFE4
:103840004091DA065091DB066091DC067091DD064E
:103850002AE030E08CEA94E064D98091C00085FFD2
:10386000FCCF8AE08093C60010924905109248056B
:10387000CBC28091DE069091DF06A091E006B09168
:10388000E1068093DA069093DB06A093DC06B09302
:10389000DD0680914D0590914E05989E5001999EB0
:1038A000B00C1124C5018B5A9A4F1C0167E470E0DB
:1038B0000E94BBA5009709F44BC0909346058093E6
:1038C0004505821993098A0D9B1D60E070E08A5AB4
:1038D0009A4F0E94A9A20E94E09E6430710508F0F0
:1038E00037C08091330581111AC080913E07811144
:1038F0002FC0F6018491ECEAF7E0882349F090911B
:10390000C00095FFFCCF8093C60031968491F5CF1F
:103910008091C00085FFFCCF8092C60019C0F701DE
:103920008491EEE2F7E0882349F09091C00095FF82
:10393000FCCF8093C60031968491F5CF8091C00072
:1039400085FFFCCF8092C60085E297E00E94438805
:1039500080914D0590914E050196B8010E942FA2CD
:1039600090934E0580934D0580914B0590914C05A9
:10397000019690934C0580934B0510924905109247
:103980004805ACCE8B3311F47092470590914705F2
:103990009111A4CE40914D0550914E05B9016F5F34
:1039A0007F4F7093490560934805949EF001959E62
:1039B000F00D1124E20FF31FEB5AFA4F80838ECEE5
:1039C0001092470521C29A9C10019B9C300C112437
:1039D000C1018B5A9A4F5C016AE270E00E94BBA55C
:1039E000009781F5EBE0FAE08491882341F0909113
:1039F000C00095FFFCCF8093C6003196F5CFE6EE70
:103A0000F7E08491882341F09091C00095FFFCCFAE
:103A10008093C6003196F5CF4091DA065091DB06CF
:103A20006091DC067091DD062AE030E08CEA94E0DB
:103A300078D88091C00085FFFCCF8AE08093C600D3
:103A4000FADD12CF20E0612CF101E20FF11DEB5AFB
:103A5000FA4F30813A3219F02F5F6326F5CF9093F9
:103A60004605809345058A199B09820D931D60E0E8
:103A700070E08A5A9A4F0E94A9A20E94E09E262DC9
:103A800030E02617370709F4F4CEEBE0FAE0849132
:103A9000882341F09091C00095FFFCCF8093C60031
:103AA0003196F5CFE2E3F8E08491882341F09091DC
:103AB000C00095FFFCCF8093C6003196F5CF4091B2
:103AC000DA065091DB066091DC067091DD062AE093
:103AD00030E08CEA94E025D88091C00085FFFCCFCF
:103AE000ACCFEBE0FAE08491882341F09091C000E4
:103AF00095FFFCCF8093C6003196F5CFE9E5F8E05D
:103B00008491882341F09091C00095FFFCCF809371
:103B1000C6003196F5CF4091DA065091DB066091F0
:103B2000DC067091DD062AE030E08CEA94E00E9429
:103B300091158091C00085FFFCCF7FCF8091400719
:103B4000882309F461C18091480590914905892B2A
:103B500009F05AC180914B0590914C05892B11F4C5
:103B60001092310558EE252E53E0352E412C512C64
:103B70006CE3C62ED12CE12CF12C8E010F5F1F4F70
:103B800040E6642E772473944091C1095091C20994
:103B90006091C3097091C4098091B9099091BA09E3
:103BA000A091BB09B091BC09481759076A077B0768
:103BB00008F02AC180914B0590914C0504970CF0B8
:103BC00023C18091310581111FC180911409909109
:103BD0001509A0911609B09117098093C109909316
:103BE000C209A093C309B093C4098CE099E00E9474
:103BF000353E482F80934A058A30B9F04D30A9F000
:103C0000433229F420914705211103C00EC04A33E5
:103C1000C9F320914805309149052F3531052CF421
:103C20008F3FFFEF9F0709F0D1C04091C10950912C
:103C3000C2096091C3097091C4098091B90990913A
:103C4000BA09A091BB09B091BC09481759076A0786
:103C50007B0708F481C0E1E1F7E08491882341F01B
:103C60009091C00095FFFCCF8093C6003196F5CFB0
:103C70008091C00085FFFCCFFAE0F093C6000E945F
:103C80006897609335057093360580933705909358
:103C900038058090390590903A05A0903B05B0908A
:103CA0003C05681979098A099B09A20191010E94C2
:103CB00042A249015A01CA01B901A70196010E9415
:103CC00042A2CA01B901A70196010E9442A27F93B4
:103CD0006F93C501B40120E13EE040E050E00E9456
:103CE00042A23F932F93ADEFB6E0BF93AF931F93E4
:103CF0000F930E94EAA5E5E0FAE084910FB6F894EC
:103D0000DEBF0FBECDBF882349F09091C00095FF64
:103D1000FCCF8093C60031968491F5CFF801819154
:103D2000882339F09091C00095FFFCCF8093C600A6
:103D3000F6CF8091C00085FFFCCF3AE03093C600FB
:103D4000C8010E9434888EE397E00E94EA5461E043
:103D50008EE397E00E944C5280914A05833211F421
:103D600070923105209148053091490521153105A2
:103D700009F426CE80914D0590914E05689EF00184
:103D8000699EF00D1124E20FF31FEB5AFA4F1082D7
:103D9000FC01EF5AFA4F708220914B0530914C058F
:103DA0002F5F3F4F30934C0520934B05019664E005
:103DB00070E00E942FA290934E0580934D051092C3
:103DC00047051092490510924805DECE4B3311F499
:103DD00070924705409147054111D2CE40914D0563
:103DE00050914E05B9016F5F7F4F70934905609305
:103DF0004805649EF001659EF00D1124E20FF31F4B
:103E0000EB5AFA4F8083C0CE6E960FB6F894DEBFA1
:103E10000FBECDBFDF91CF911F910F91FF90EF901B
:103E2000DF90CF90BF90AF909F908F907F906F90DA
:103E30005F904F903F902F9008958F929F92AF92F6
:103E4000BF92CF92DF92EF92FF920F931F93CF9387
:103E5000DF93B6E1EB2EB4E0FB2E08E217E0C6EFED
:103E6000D6E08AE3C82E87E0D82EF70181917F0142
:103E700093DB882311F17CDB4B015C01F60180812F
:103E8000811103C06091D50601C061E070E080E05F
:103E900090E00E94139FF80120813181428153817B
:103EA0000E9446A19B01AC01C501B4010E94989DEE
:103EB000688379838A839B8309C0F801808191811B
:103EC000A281B38188839983AA83BB830C5F1F4F30
:103ED0002496FFEFCF1ADF0A8AE1E81684E0F8069D
:103EE00021F686E459DB8823D1F042DB6B017C01AB
:103EF0006093E6067093E7068093E8069093E906E0
:103F000020E030E0A9010E9474A0181644F4C09289
:103F10000B02D0920C02E0920D02F0920E02DF91A1
:103F2000CF911F910F91FF90EF90DF90CF90BF90B6
:103F3000AF909F908F90089580DF89E42DDB8823D8
:103F400051F016DB6093EA067093EB068093EC0663
:103F50009093ED0608C01092EA061092EB061092BC
:103F6000EC061092ED068AE417DB882351F000DBA3
:103F70006093EE067093EF068093F0069093F1063F
:103F800008951092EE061092EF061092F00610922D
:103F9000F10608950895CF92DF92EF92FF920F936A
:103FA0001F930E9468976093410570934205809328
:103FB0004305909344052091F6063091F706409111
:103FC000F8065091F90660912807709129078091B1
:103FD0002A0790912B070E94719E811179C0209130
:103FE000FA063091FB064091FC065091FD06609167
:103FF0002C0770912D0780912E0790912F070E941A
:10400000719E811165C020E030E040E752E460918C
:104010000B0270910C0280910D0290910E020E9491
:10402000789E28E0C22E27E0D22E7B018C0122E070
:1040300037E04EEF56E06AEF76E086EF96E00E94BA
:10404000595C8091F6069091F706A091F806B09120
:10405000F9068093280790932907A0932A07B09325
:104060002B078091FA069091FB06A091FC06B09177
:10407000FD0680932C0790932D07A0932E07B093F5
:104080002F078091FE069091FF06A0910007B09146
:1040900001078093300790933107A0933207B093C4
:1040A00033078091020790910307A0910407B09114
:1040B00005078093340790933507A0933607B09394
:1040C00037071F910F91FF90EF90DF90CF900895E9
:1040D0006091250270912602882777FD8095982FA0
:1040E0000E94139F20910B0230910C0240910D020F
:1040F00050910E020E9446A120E030E040E752E4D9
:104100000E94789E20E030E048EC52E488CFAF92E5
:10411000BF92CF92DF92EF92FF920F931F93CF93B4
:10412000DF93D82F2091EE063091EF064091F006F4
:104130005091F1066091EA067091EB068091EC06D1
:104140009091ED060E9481A0C62F172F082FF92EFF
:104150006091250270912602882777FD8095982F1F
:104160000E94139F20910B0230910C0240910D028E
:1041700050910E020E9446A120E030E040E752E458
:104180000E94789E20E030E048EC52E40E94789E45
:10419000209108072F93DF93FF920F931F93CF93E4
:1041A0005B016C0132E0E32E01E020E04AEE56E0D4
:1041B00066EF76E088E297E00E9442558091F6062D
:1041C0009091F706A091F806B091F9068093280720
:1041D00090932907A0932A07B0932B078091FA06A2
:1041E0009091FB06A091FC06B091FD0680932C07F0
:1041F00090932D07A0932E07B0932F078091FE0672
:104200009091FF06A0910007B091010780933007BD
:1042100090933107A0933207B09333078091020740
:1042200090910307A0910407B0910507809334078C
:1042300090933507A0933607B09337070E9468978D
:104240006093410570934205809343059093440524
:104250000F900F900F900F900F900F90DF91CF91D4
:104260001F910F91FF90EF90DF90CF90BF90AF9094
:104270000895F8940E945873159A10920D07179A92
:1042800010920E07429A10920F07A09A60E08CE0FD
:104290000E944199EBE0FAE08491882341F09091EB
:1042A000C00095FFFCCF8093C6003196F5CFE4E5C2
:1042B000F4E08491882341F09091C00095FFFCCFF9
:1042C0008093C6003196F5CF8091C00085FFFCCF6A
:1042D0008AE08093C60083E494E00E9452880E94A2
:1042E0003419FFCFCF92DF92EF92FF920F931F937B
:1042F0000E94689700913D0510913E0520913F0571
:1043000030914005C0904105D0904205E0904305B2
:10431000F09044056C197D098E099F09061717074F
:104320002807390728F4012B022B032B09F0A1DF02
:104330008091070290910802A0910902B0910A02AF
:10434000892B8A2B8B2B09F10E94689700914105DC
:10435000109142052091430530914405601B710B7B
:10436000820B930B00910702109108022091090221
:1043700030910A02061717072807390730F4909181
:10438000DA0B8091D90B981741F01F910F91FF9094
:10439000EF90DF90CF900C943D5C159A10920D0732
:1043A000179A10920E07429A10920F07A09AEDCF1B
:1043B0000E94587380913305811138C081E0809349
:1043C00033058091DA069091DB06A091DC06B0916E
:1043D000DD068093D6069093D706A093D806B093B7
:1043E000D906EBE0FAE08491882341F09091C00077
:1043F00095FFFCCF8093C6003196F5CFE5ECF3E056
:104400008491882341F09091C00095FFFCCF809368
:10441000C6003196F5CF8091C00085FFFCCF8AE0C1
:104420008093C6008CEB93E00C94438808958091B0
:104430003305089567707727E82FF0E0E056F54ED2
:10444000849190E0FC013797EC30F10578F5EE5857
:10445000FF4F0C9480A28091B100887F8093B100BF
:104460008091B100862B8093B100089580919100D6
:10447000887F8093910080919100862B809391009A
:1044800008958091A100887F8093A1008091A10070
:10449000862B8093A100089580912101887F8093CD
:1044A000210180912101862B809321010895CF93D2
:1044B000DF93EC01809108078093340584E56CD884
:1044C000811102C080E074C053D80E94E59E6093C1
:1044D00034056623B9F3E5E0FAE08491882341F0DE
:1044E0009091C00095FFFCCF8093C6003196F5CF28
:1044F000CD36D105B9F054F4C836D105B1F0C9367E
:10450000D10509F045C0EAE2F3E021C0CA3DD1057A
:1045100031F0CD3DD105E1F5EFEDF2E036C0E8EF49
:10452000F2E029C0E1E1F3E01CC0E3E4F3E08191B3
:10453000882371F19091C00095FFFCCF8093C60055
:10454000F6CF9091C00095FFFCCF8093C60081917B
:104550008111F7CF1DC09091C00095FFFCCF8093D3
:10456000C60081918111F7CF13C09091C00095FFD3
:10457000FCCF8093C60081918111F7CF09C0909143
:10458000C00095FFFCCF8093C60081918111F7CFC9
:1045900040E050E0609134058CEA94E00E94EB1515
:1045A0008091C00085FFFCCF8AE08093C60081E047
:1045B000DF91CF9108953F924F925F926F927F92D9
:1045C0008F929F92AF92BF92CF92DF92EF92FF9223
:1045D0000F931F93CF93DF93CDB7DEB7E4970FB65A
:1045E000F894DEBF0FBECDBF87E40E94CC1A8823AB
:1045F00009F490C30E94B81A0E94E09E64307105CD
:10460000B1F144F46230710511F144F577FF17C040
:104610000C94E6366A35710509F428C334F46C311C
:10462000710509F46BC00C94E6366B35710509F41D
:1046300021C36C35710509F422C30C94E6368091D0
:104640003305811104C0F9DBA6DC0C947C38809121
:104650003305811103C070DC81E006C08091330511
:10466000811105C069DC80E052DD0C947C3882EF5A
:1046700096E00E94438880E50E94CC1A882339F096
:104680000E94B81A0E94E59E4B015C0103C0812C78
:10469000912C540183E50E94CC1A882361F00E947A
:1046A000B81A20E030E04AE754E40E9446A10E9494
:1046B000E59E4B015C010E94686F0E9468976B0148
:1046C0007C01C80CD91CEA1CFB1C0E9468976093F3
:1046D00041057093420580934305909344050E94E1
:1046E00068976C157D058E059F0510F00C94E636D5
:1046F0000E948870F7DD0E94DD88F1CF80910B0267
:1047000090910C02A0910D02B0910E028093E206EE
:104710009093E306A093E406B093E506809125020A
:1047200090912602909339078093380784E690E0B1
:1047300090932602809325020E946897609341051A
:1047400070934205809343059093440581E00E9455
:10475000AE678091280790912907A0912A07B09110
:104760002B078093F6069093F706A093F806B09374
:10477000F90680912C0790912D07A0912E07B091FA
:104780002F078093FA069093FB06A093FC06B09344
:10479000FD068091300790913107A0913207B091CA
:1047A00033078093FE069093FF06A0930007B09313
:1047B00001078091340790913507A0913607B09199
:1047C00037078093020790930307A0930407B093E1
:1047D000050710920B0210920C0210920D0210921B
:1047E0000E0288E50E94CC1A882311F090E00AC0DE
:1047F00089E50E94CC1A8111F9CF8AE50E94CC1A72
:1048000091E0982790930F0291110CC088E50E94C7
:10481000CC1A882309F47CC189E50E94CC1A88232C
:1048200009F476C1109228071092290710922A07DE
:1048300010922B0710922C0710922D0710922E0722
:1048400010922F07E6ECF9E0149124E337E040E3FF
:1048500057E06CE277E088E297E00E94F26585ED30
:1048600099E00E948B1620E030E040EC5FE30E946C
:1048700046A16B017C01612F772767FD7095872F1B
:10488000972F0E94139F9B01AC01C701B6010E94A4
:1048900046A16093F6067093F7068093F80690930E
:1048A000F90689ED99E00E948B16E7ECF9E0149186
:1048B00020E030E040EC5FE30E9446A16B017C0108
:1048C000612F772767FD7095872F972F0E94139F81
:1048D0009B01AC01C701B6010E9446A16093FA0694
:1048E0007093FB068093FC069093FD0620912702AF
:1048F000309128024091290250912A0220930B0204
:1049000030930C0240930D0250930E02C0902B0284
:10491000D0902C02E0902D02F0902E02C701B6013B
:104920000E94719E87FF08C0C0920B02D0920C02B9
:10493000E0920D02F0920E0285ED99E00E948B1636
:104940006B017C0189ED99E00E948B169B01AC0103
:10495000C701B6010E9474A0181614F00C94E93631
:1049600089ED99E00E948B166B017C0185ED99E041
:104970000E948B169B01AC01C701B6010E94789E74
:104980009B01AC010E9446A120E030E040E85FE3DB
:104990000E94989D0E94B3A19B01AC0160910B0203
:1049A00070910C0280910D0290910E020E9446A11E
:1049B00060930B0270930C0280930D0290930E0291
:1049C00020E030E040E752E460910B0270910C026D
:1049D00080910D0290910E020E94789EE8E0CE2E0A
:1049E000E7E0DE2E7B018C0122E037E04EEF56E05F
:1049F0006AEF76E086EF96E00E94595C0E94686F4D
:104A000080E090E00E94911681E090E00E94911673
:104A100024E337E040E357E06CE277E088E297E098
:104A20000E94F2658091280790912907A0912A079A
:104A3000B0912B078093F6069093F706A093F806A3
:104A4000B093F90680912C0790912D07A0912E0725
:104A5000B0912F078093FA069093FB06A093FC0673
:104A6000B093FD0620E030E040E752E460910B0295
:104A700070910C0280910D0290910E020E94789E1E
:104A80007B018C0122E037E04EEF56E06AEF76E0E2
:104A900086EF96E00E94595C10920B0210920C0275
:104AA00010920D0210920E020E94686F0E94A7677A
:104AB0008091F6069091F706A091F806B091F9065C
:104AC0008093280790932907A0932A07B0932B0778
:104AD0008091FA069091FB06A091FC06B091FD062C
:104AE00080932C0790932D07A0932E07B0932F0748
:104AF0008091FE069091FF06A0910007B0910107FA
:104B00008093300790933107A0933207B093330717
:104B100080910F0281110C94F33688E50E94CC1A23
:104B200081110C94F33680910F0281110C94F936A7
:104B300089E50E94CC1A81110C94F93688E50E940F
:104B4000CC1A8823D1F00E94C11A672B682B692BDD
:104B5000A1F00E94B81A20911C0730911D074091C6
:104B60001E0750911F070E94989D6093280770931D
:104B7000290780932A0790932B0789E50E94CC1A76
:104B80008823D1F00E94C11A672B682B692BA1F0F2
:104B90000E94B81A209120073091210740912207E6
:104BA000509123070E94989D60932C0770932D07C6
:104BB00080932E0790932F0780910F0281110C9400
:104BC000FF368AE50E94CC1A81110C94FF368AE5E3
:104BD0000E94CC1A8823D1F00E94C11A672B682B3F
:104BE000692BA1F00E94B81A209124073091250763
:104BF00040912607509127070E94989D60933007A7
:104C000070933107809332079093330724E337E0A2
:104C100040E357E06CE277E088E297E00E94F265BB
:104C20008091E2069091E306A091E406B091E5063A
:104C300080930B0290930C02A0930D02B0930E028E
:104C4000809138079091390790932602809325022E
:104C50000E946897609341057093420580934305D5
:104C6000909344050E94A7670C94E6361092D506EF
:104C70000C94E63681E08093D5060C94E63685E404
:104C80000E94CC1A811102C00E94686F56E1C52EA5
:104C900054E0D52E6CE1E62E67E0F62E08E217E030
:104CA000B12CF60181916F010E94CC1A882339F151
:104CB000F3E0BF120CC00E94B81AF8016083718340
:104CC0008283938384E397E00E94976618C00E94D2
:104CD000B81AF70120813181428153810E94989D49
:104CE000F801608371838283938324E337E040E398
:104CF00057E06CE277E088E297E00E94F265B394B7
:104D0000F4E0EF0EF11C0C5F1F4F24E0B212C9CF8C
:104D10000C94E6368DE40E94CC1A882311F40C948E
:104D200015360E94B81A0E94E09E6237710509F498
:104D3000A7C70CF0A7C06F31710509F43EC3A4F5F5
:104D40006631710509F4DDC1BCF46131710509F406
:104D50009AC134F46230710508F43BC10C94E63614
:104D60006431710509F499C10CF0C5C16231710556
:104D700009F4A8C60C94E6366A31710509F4F6C147
:104D80003CF46831710509F4DBC10CF4C0C1E8C121
:104D90006C31710509F4FEC10CF4F6C16E31710578
:104DA00009F42EC20C94E6366435710509F48AC6FE
:104DB000A4F56035710509F46DC654F460327105CF
:104DC00009F45DC26A32710509F455C30C94E636E4
:104DD0006235710509F46DC60CF06FC60E945873F8
:104DE0000E94686FA09A0E94D06F109207071092DD
:104DF000060768EE73E080E090E00E9497970E94BB
:104E0000686F0E9434191092100285EF95E00E949D
:104E100043880E94DD880C94E6366936710509F4F2
:104E200084C324F56C35710509F484C668367105B0
:104E300009F44CC36535710511F00C94E63683E531
:104E40000E94CC1A0E94B81A20E030E04AE754E4ED
:104E50000E9446A10E94E59E60933D0570933E0529
:104E600080933F05909340050C94E6366B367105B0
:104E700009F40AC60CF4D8C56D36710509F462C48C
:104E80000C94E6366D3D710511F40C9473310CF001
:104E900046C06E3B710509F4C3C4DCF46737710585
:104EA00009F494C054F46337710509F4C5C6653735
:104EB000710509F4D0C60C94E6366937710509F41A
:104EC000C2C70CF4BCC76C38710509F41DC30C943F
:104ED000E6366C3C710511F40C94CA308CF4693CD4
:104EE000710511F40C948E306B3C710511F40C9427
:104EF000AE30683C710511F00C94E6360C94163017
:104F00006E3C710511F40C94483114F40C94EA30A1
:104F10006C3D710511F40C9464310C94E636643FD9
:104F200031E0730711F40C9406332CF56D3291E0E7
:104F3000790711F40C94FA3164F4623E710511F4AE
:104F40000C9499316C32714011F40C94C4310C946E
:104F5000E6366F3221E0720711F40C94CE3214F46D
:104F60000C94C0326039714011F00C94E6360E9406
:104F7000686F0C94E636683592E0790711F40C946A
:104F8000E43394F4663FF1E07F0711F40C940C33A2
:104F900014F40C940933673F714011F00C94E63619
:104FA0000E945E0F0C94E636603A83E0780709F4BD
:104FB000D0C1673E93E0790711F40C94FE35633558
:104FC000734011F00C94E6360C940F33EBE6F3E0EB
:104FD00044C782EE96E00E94438880E50E94CC1A86
:104FE000882339F00E94B81A0E94E59E6B017C016B
:104FF00003C0C12CD12C760183E50E94CC1A8823F2
:1050000061F00E94B81A20E030E04AE754E40E94C0
:1050100046A10E94E59E6B017C010E94686F0E9480
:105020006897609341057093420580934305909380
:105030004405C114D104E104F104A9F00E94689769
:105040004B015C018C0C9D1CAE1CBF1C0E94689720
:10505000681579058A059B0580F40E949F89811156
:105060000CC00C9405370E949F89811106C00E94D4
:10507000887038D90E94DD88F6CF82ED96E00E94D4
:1050800043880C94E63684EC96E00E944388159899
:1050900017984298A0980C94E636E7EAF6E08491D7
:1050A000882341F09091C00095FFFCCF8093C6000B
:1050B0003196F5CF8091C00085FFFCCF8AE08093C8
:1050C000C6008EE397E00E94AF4BEEE8F6E08491D5
:1050D000882341F09091C00095FFFCCF8093C600DB
:1050E0003196F5CF8091C00085FFFCCF8AE0809398
:1050F000C6000C94E6368EE397E00E94064C0C94B2
:10510000E6368EE397E00E94CA4C0C94E636009196
:105110004505109146050C5F1F4F6AE270E0C8011B
:105120000E94BBA5009719F0FC013197108221E085
:1051300041E0B8018EE397E00E94394D0C94E636C9
:105140008EE397E00E94CE4C0E94689760933905E9
:1051500070933A0580933B0590933C050C94E6369A
:105160008EE397E00E94D54C0C94E636809141077F
:10517000882311F40C94E63683E50E94CC1A811141
:105180000C940D370C94E6368EE397E00E9486511E
:105190000C94E63680914505909146056AE270E0F0
:1051A00004960E94BBA58C010097E1F020914F0569
:1051B0003091500540E6429FC001439F900D11245D
:1051C0006EE470E08B5A9A4F0E94BBA560E270E0DB
:1051D0000E94BBA501969093460580934505F80172
:1051E0003197108260914505709146056C5F7F4F45
:1051F00021E040E08EE397E00E94394D0C94E636C2
:1052000080914107882311F40C94E63660E08EE328
:1052100097E00E94405380914505909146056AE2CF
:1052200070E004960E94BBA58C010097E1F02091EC
:105230004F053091500540E6429FC001439F900DBD
:1052400011246EE470E08B5A9A4F0E94BBA560E275
:1052500070E00E94BBA5019690934605809345059A
:10526000F8013197108260914505709146056C5F99
:105270007F4F8EE397E00E944D500C94E63680916C
:10528000400781110E94686F009145051091460505
:105290000C5F1F4F6AE270E0C8010E94BBA57C0151
:1052A00061E270E0C8010E94BBA5009719F08C0173
:1052B0000F5F1F4FE114F10419F0F70131971082CD
:1052C00080E50E94CC1AF82E2091450530914605C4
:1052D0000217130708F4F12C80914107882311F479
:1052E0000C94E63621E02F2541E0B8018EE397E0EB
:1052F0000E94394D83E50E94CC1A8823B9F0209191
:105300004505309146052017310780F40E94C11AE7
:10531000AB01BC014093C1095093C2096093C3091A
:105320007093C4098CE099E00E949B3F8EE397E064
:105330000E94CE4CF1100C94E6360E946897609360
:10534000390570933A0580933B0590933C050C9486
:10535000E63680914505909146056AE270E0059633
:105360000E94BBA58C010097E1F020914F05309180
:10537000500540E6429FC001439F900D11246EE40A
:1053800070E08B5A9A4F0E94BBA560E270E00E94C9
:10539000BBA501969093460580934505F80131978A
:1053A000108260914505709146056B5F7F4F8EE3DB
:1053B00097E00E9448500C94E6360E9468976093EC
:1053C0003505709336058093370590933805009125
:1053D000390510913A0520913B0530913C05601B41
:1053E000710B820B930B28EE33E040E050E00E94FB
:1053F00042A2CA01B9012CE330E040E050E00E9433
:1054000042A27F936F933F932F938FE796E09F93F2
:105410008F93CE0101969F938F930E94EAA5E5E0BA
:10542000FAE084910FB6F894DEBF0FBECDBF88239B
:1054300049F09091C00095FFFCCF8093C600319653
:105440008491F5CFFE0131968191882339F09091B6
:10545000C00095FFFCCF8093C600F6CF8091C000BE
:1054600085FFFCCF8AE08093C600CE0101960E94A2
:1054700034880C94E63683E50E94CC1A882311F414
:105480000C94E6360E94B81A6B017C0180E50E94FC
:10549000CC1A882351F0C701B6010E94E09E6F3FED
:1054A000710509F010F40C941E376DE070E020E0F7
:1054B000E22FEE0FFF0BE252FC4F808191818617A5
:1054C000970711F40C94E6362F5FF2CF88E690E050
:1054D0000E94572281110C94E63683E50E94CC1A73
:1054E000882371F0009134050E94B81A10E0000F73
:1054F000111F03531E4E0E94E09EF80171836083CA
:105500000E941D730C94E63683E50E94CC1A882312
:1055100011F40C94E6360E94B81A0E94E09E709333
:10552000CC116093CB110C94E63689E690E00E9492
:10553000572281110C94E636E9E7F6E0849188233E
:1055400041F09091C00095FFFCCF8093C60031964A
:10555000F5CFE091340524E0E29FF0011124EB53F4
:10556000FE4E408151816281738121E030E08CEAFE
:1055700094E00E948A16E6E7F6E08491882341F0E1
:105580009091C00095FFFCCF8093C6003196F5CF77
:10559000E0913405F0E0EE0FFF1FE353FE4E608113
:1055A0007181882777FD8095982F0E94139FAB010A
:1055B000BC0121E030E08CEA94E00E948A16E2E728
:1055C000F6E08491882341F09091C00095FFFCCFD4
:1055D0008093C6003196F5CF4091BF115091C01114
:1055E0006091C1117091C21121E030E08CEA94E029
:1055F0000E948A16EFE6F6E08491882341F09091AC
:10560000C00095FFFCCF8093C6003196F5CF609126
:10561000CB117091CC11882777FD8095982F0E942F
:10562000139FAB01BC0121E030E08CEA94E00E94C2
:105630008A16ECE6F6E08491882341F09091C00050
:1056400095FFFCCF8093C6003196F5CF4AE050E03D
:1056500060E070E08CEA94E00E94B415EAE6F6E0BF
:105660008491882341F09091C00095FFFCCF8093F6
:10567000C6003196F5CF4091C5115091C611609189
:10568000C7117091C81121E030E08CEA94E00E94CB
:105690008A16E7E6F6E08491882341F09091C000F5
:1056A00095FFFCCF8093C6003196F5CF6091CD1168
:1056B0007091CE11882777FD8095982F0E94139FB7
:1056C000AB01BC0121E030E08CEA94E00E948A1634
:1056D000E3E6F6E08491882341F09091C00095FFC5
:1056E000FCCF8093C6003196F5CF8091340590E0D1
:1056F0000E947D704AE050E0BC018CEA94E00E9478
:10570000B415EEE5F6E08491882341F09091C00055
:1057100095FFFCCF8093C6003196F5CF8FEF9FEFBA
:105720000E947D704AE050E0BC018CEA94E00E9447
:10573000B4158091C00085FFFCCF8AE08093C6003D
:105740000C947C388DE690E00E94572281110C94D5
:10575000E63681E596E00E94438883E50E94CC1AF4
:10576000882391F0009134050E94B81A10E0000FD0
:10577000111F03531E4E0E94E09EF8017183608347
:1057800081E08093060215C082E50E94CC1A88232E
:1057900081F0009134050E94B81A10E0000F111F2B
:1057A00003531E4E0E94E09EF801718360831092A5
:1057B00006020E941D730E9468974B015C010091D4
:1057C000340510E0F801EE0FFF1FE353FE4E608139
:1057D0007181882777FD8095982F0E94139FF8018B
:1057E000EE0FFF1FEE0FFF1FEB53FE4E11E0208167
:1057F0003181428153810E9474A018160CF010E090
:1058000010933205CC24CA94DC2C760148EE442E49
:1058100043E0542E612C712C5AE0352E0C948137C4
:105820008AE296E00E94438883E50E94CC1A88238E
:1058300061F00E94B81A0E94E09E7093CC116093B0
:10584000CB1181E0809306020FC082E50E94CC1A42
:10585000882351F00E94B81A0E94E09E7093CC11E8
:105860006093CB11109206020E9468974B015C0175
:105870006091CB117091CC11882777FD8095982F7E
:105880000E94139F11E02091BF113091C0114091EF
:10589000C1115091C2110E9474A018160CF010E0B2
:1058A0001093320507E216E073E2E72E76E0F72E5A
:1058B000EFE1CE2EE6E0DE2EFAE07F2E809132057B
:1058C0006091CB117091CC11882309F486C0882790
:1058D00077FD8095982F0E94139F2091BF113091E2
:1058E000C0114091C1115091C2110E9474A01816AC
:1058F0000CF08AC00E946897681979098A099B0987
:10590000693E73408105910508F460C0E091080785
:1059100034E0E39FF0011124EB53FE4E40815181AE
:1059200062817381F8018491E7E2F6E0882349F00F
:105930009091C00095FFFCCF8093C6003196849172
:10594000F5CF22E030E08CEA94E00E948A16F7015D
:105950008491E3E2F6E0882349F09091C00095FF3E
:10596000FCCF8093C60031968491F5CF60910807F3
:1059700070E04AE050E08CEA94E00E94B415F60131
:105980008491EFE1F6E0882349F09091C00095FF03
:10599000FCCF8093C60031968491F5CF4091BF1122
:1059A0005091C0116091C1117091C21121E030E09D
:1059B0008CEA94E00E948A168091C00085FFFCCF9B
:1059C0007092C6000E9468974B015C010E9488702B
:1059D0000E9472210E94DD8871CF882777FD809513
:1059E000982F0E94139F2091BF113091C0114091B8
:1059F000C1115091C2110E94719E87FF05C0809114
:105A00000602882309F476CF82E196E00E9443885B
:105A10000E94689760934105709342058093430507
:105A2000909344050C94E63683E50E94CC1A8823B3
:105A300019F10E94B81A20E030E0A9010E94719E7D
:105A400087FD0FC00E94B81A20E030E04FE753E412
:105A50000E9474A0181644F00E94B81A0E94E09E9A
:105A600005C060E070E002C06FEF70E07093070760
:105A7000609306070C94E6368FEF90E0909307074B
:105A8000809306070C94E6361092070710920607DB
:105A90000C94E636269A2E98809A889A81E0809314
:105AA000100282E096E00E9443880E94DD880C94F8
:105AB000E63610923D070C94E63681E080933D0770
:105AC0000C94E63683E50E94CC1A8823A1F00E944C
:105AD000B81A20E030E04AE754E40E9446A10E9450
